{
  "_format": "hh-sol-artifact-1",
  "contractName": "ERC20",
  "sourceName": "contracts/ProxyErc20.sol",
  "abi": [
    {
      "inputs": [
        {
          "internalType": "string",
          "name": "name_",
          "type": "string"
        },
        {
          "internalType": "string",
          "name": "symbol_",
          "type": "string"
        },
        {
          "internalType": "uint256",
          "name": "totalSupply_",
          "type": "uint256"
        },
        {
          "internalType": "uint256",
          "name": "sudtId_",
          "type": "uint256"
        },
        {
          "internalType": "uint8",
          "name": "decimals_",
          "type": "uint8"
        }
      ],
      "stateMutability": "nonpayable",
      "type": "constructor"
    },
    {
      "anonymous": false,
      "inputs": [
        {
          "indexed": true,
          "internalType": "address",
          "name": "owner",
          "type": "address"
        },
        {
          "indexed": true,
          "internalType": "address",
          "name": "spender",
          "type": "address"
        },
        {
          "indexed": false,
          "internalType": "uint256",
          "name": "value",
          "type": "uint256"
        }
      ],
      "name": "Approval",
      "type": "event"
    },
    {
      "anonymous": false,
      "inputs": [
        {
          "indexed": true,
          "internalType": "address",
          "name": "from",
          "type": "address"
        },
        {
          "indexed": true,
          "internalType": "address",
          "name": "to",
          "type": "address"
        },
        {
          "indexed": false,
          "internalType": "uint256",
          "name": "value",
          "type": "uint256"
        }
      ],
      "name": "Transfer",
      "type": "event"
    },
    {
      "inputs": [
        {
          "internalType": "address",
          "name": "owner",
          "type": "address"
        },
        {
          "internalType": "address",
          "name": "spender",
          "type": "address"
        }
      ],
      "name": "allowance",
      "outputs": [
        {
          "internalType": "uint256",
          "name": "",
          "type": "uint256"
        }
      ],
      "stateMutability": "view",
      "type": "function"
    },
    {
      "inputs": [
        {
          "internalType": "address",
          "name": "spender",
          "type": "address"
        },
        {
          "internalType": "uint256",
          "name": "amount",
          "type": "uint256"
        }
      ],
      "name": "approve",
      "outputs": [
        {
          "internalType": "bool",
          "name": "",
          "type": "bool"
        }
      ],
      "stateMutability": "nonpayable",
      "type": "function"
    },
    {
      "inputs": [
        {
          "internalType": "address",
          "name": "account",
          "type": "address"
        }
      ],
      "name": "balanceOf",
      "outputs": [
        {
          "internalType": "uint256",
          "name": "",
          "type": "uint256"
        }
      ],
      "stateMutability": "nonpayable",
      "type": "function"
    },
    {
      "inputs": [],
      "name": "decimals",
      "outputs": [
        {
          "internalType": "uint8",
          "name": "",
          "type": "uint8"
        }
      ],
      "stateMutability": "view",
      "type": "function"
    },
    {
      "inputs": [
        {
          "internalType": "address",
          "name": "spender",
          "type": "address"
        },
        {
          "internalType": "uint256",
          "name": "subtractedValue",
          "type": "uint256"
        }
      ],
      "name": "decreaseAllowance",
      "outputs": [
        {
          "internalType": "bool",
          "name": "",
          "type": "bool"
        }
      ],
      "stateMutability": "nonpayable",
      "type": "function"
    },
    {
      "inputs": [
        {
          "internalType": "address",
          "name": "spender",
          "type": "address"
        },
        {
          "internalType": "uint256",
          "name": "addedValue",
          "type": "uint256"
        }
      ],
      "name": "increaseAllowance",
      "outputs": [
        {
          "internalType": "bool",
          "name": "",
          "type": "bool"
        }
      ],
      "stateMutability": "nonpayable",
      "type": "function"
    },
    {
      "inputs": [],
      "name": "name",
      "outputs": [
        {
          "internalType": "string",
          "name": "",
          "type": "string"
        }
      ],
      "stateMutability": "view",
      "type": "function"
    },
    {
      "inputs": [],
      "name": "sudtId",
      "outputs": [
        {
          "internalType": "uint256",
          "name": "",
          "type": "uint256"
        }
      ],
      "stateMutability": "view",
      "type": "function"
    },
    {
      "inputs": [],
      "name": "symbol",
      "outputs": [
        {
          "internalType": "string",
          "name": "",
          "type": "string"
        }
      ],
      "stateMutability": "view",
      "type": "function"
    },
    {
      "inputs": [],
      "name": "totalSupply",
      "outputs": [
        {
          "internalType": "uint256",
          "name": "",
          "type": "uint256"
        }
      ],
      "stateMutability": "view",
      "type": "function"
    },
    {
      "inputs": [
        {
          "internalType": "address",
          "name": "recipient",
          "type": "address"
        },
        {
          "internalType": "uint256",
          "name": "amount",
          "type": "uint256"
        }
      ],
      "name": "transfer",
      "outputs": [
        {
          "internalType": "bool",
          "name": "",
          "type": "bool"
        }
      ],
      "stateMutability": "nonpayable",
      "type": "function"
    },
    {
      "inputs": [
        {
          "internalType": "address",
          "name": "sender",
          "type": "address"
        },
        {
          "internalType": "address",
          "name": "recipient",
          "type": "address"
        },
        {
          "internalType": "uint256",
          "name": "amount",
          "type": "uint256"
        }
      ],
      "name": "transferFrom",
      "outputs": [
        {
          "internalType": "bool",
          "name": "",
          "type": "bool"
        }
      ],
      "stateMutability": "nonpayable",
      "type": "function"
    }
  ],
  "bytecode": "0x60806040523480156200001157600080fd5b50604051620018d6380380620018d68339818101604052810190620000379190620001ed565b84600390805190602001906200004f9291906200009d565b508360049080519060200190620000689291906200009d565b50826001819055508160028190555080600560006101000a81548160ff021916908360ff16021790555050505050506200041d565b828054620000ab9062000355565b90600052602060002090601f016020900481019282620000cf57600085556200011b565b82601f10620000ea57805160ff19168380011785556200011b565b828001600101855582156200011b579182015b828111156200011a578251825591602001919060010190620000fd565b5b5090506200012a91906200012e565b5090565b5b80821115620001495760008160009055506001016200012f565b5090565b6000620001646200015e84620002d5565b620002a1565b9050828152602081018484840111156200017d57600080fd5b6200018a8482856200031f565b509392505050565b600082601f830112620001a457600080fd5b8151620001b68482602086016200014d565b91505092915050565b600081519050620001d081620003e9565b92915050565b600081519050620001e78162000403565b92915050565b600080600080600060a086880312156200020657600080fd5b600086015167ffffffffffffffff8111156200022157600080fd5b6200022f8882890162000192565b955050602086015167ffffffffffffffff8111156200024d57600080fd5b6200025b8882890162000192565b94505060406200026e88828901620001bf565b93505060606200028188828901620001bf565b92505060806200029488828901620001d6565b9150509295509295909350565b6000604051905081810181811067ffffffffffffffff82111715620002cb57620002ca620003ba565b5b8060405250919050565b600067ffffffffffffffff821115620002f357620002f2620003ba565b5b601f19601f8301169050602081019050919050565b6000819050919050565b600060ff82169050919050565b60005b838110156200033f57808201518184015260208101905062000322565b838111156200034f576000848401525b50505050565b600060028204905060018216806200036e57607f821691505b602082108114156200038557620003846200038b565b5b50919050565b7f4e487b7100000000000000000000000000000000000000000000000000000000600052602260045260246000fd5b7f4e487b7100000000000000000000000000000000000000000000000000000000600052604160045260246000fd5b620003f48162000308565b81146200040057600080fd5b50565b6200040e8162000312565b81146200041a57600080fd5b50565b6114a9806200042d6000396000f3fe608060405234801561001057600080fd5b50600436106100b45760003560e01c806370a082311161007157806370a08231146101a357806395d89b41146101d35780639f8dfb59146101f1578063a457c2d71461020f578063a9059cbb1461023f578063dd62ed3e1461026f576100b4565b806306fdde03146100b9578063095ea7b3146100d757806318160ddd1461010757806323b872dd14610125578063313ce567146101555780633950935114610173575b600080fd5b6100c161029f565b6040516100ce919061115e565b60405180910390f35b6100f160048036038101906100ec9190610e3d565b610331565b6040516100fe9190611143565b60405180910390f35b61010f61034f565b60405161011c9190611240565b60405180910390f35b61013f600480360381019061013a9190610dee565b610359565b60405161014c9190611143565b60405180910390f35b61015d610459565b60405161016a919061125b565b60405180910390f35b61018d60048036038101906101889190610e3d565b610470565b60405161019a9190611143565b60405180910390f35b6101bd60048036038101906101b89190610d89565b61051b565b6040516101ca9190611240565b60405180910390f35b6101db61062c565b6040516101e8919061115e565b60405180910390f35b6101f96106be565b6040516102069190611240565b60405180910390f35b61022960048036038101906102249190610e3d565b6106c8565b6040516102369190611143565b60405180910390f35b61025960048036038101906102549190610e3d565b6107bb565b6040516102669190611143565b60405180910390f35b61028960048036038101906102849190610db2565b6107d9565b6040516102969190611240565b60405180910390f35b6060600380546102ae906113a4565b80601f01602080910402602001604051908101604052809291908181526020018280546102da906113a4565b80156103275780601f106102fc57610100808354040283529160200191610327565b820191906000526020600020905b81548152906001019060200180831161030a57829003601f168201915b5050505050905090565b600061034561033e61085f565b8484610867565b6001905092915050565b6000600154905090565b6000610366848484610a31565b60008060008673ffffffffffffffffffffffffffffffffffffffff1673ffffffffffffffffffffffffffffffffffffffff16815260200190815260200160002060006103b061085f565b73ffffffffffffffffffffffffffffffffffffffff1673ffffffffffffffffffffffffffffffffffffffff16815260200190815260200160002054905082811015610430576040517f08c379a0000000000000000000000000000000000000000000000000000000008152600401610427906111c0565b60405180910390fd5b61044d8561043c61085f565b858461044891906112e8565b610867565b60019150509392505050565b6000600560009054906101000a900460ff16905090565b600061051161047d61085f565b848460008061048a61085f565b73ffffffffffffffffffffffffffffffffffffffff1673ffffffffffffffffffffffffffffffffffffffff16815260200190815260200160002060008873ffffffffffffffffffffffffffffffffffffffff1673ffffffffffffffffffffffffffffffffffffffff1681526020019081526020016000205461050c9190611292565b610867565b6001905092915050565b6000610525610cf9565b60025481600060028110610562577f4e487b7100000000000000000000000000000000000000000000000000000000600052603260045260246000fd5b6020020181815250508273ffffffffffffffffffffffffffffffffffffffff16816001600281106105bc577f4e487b7100000000000000000000000000000000000000000000000000000000600052603260045260246000fd5b6020020181815250506105cd610d1b565b602081604084600060f0600019f16105e457600080fd5b8060006001811061061e577f4e487b7100000000000000000000000000000000000000000000000000000000600052603260045260246000fd5b602002015192505050919050565b60606004805461063b906113a4565b80601f0160208091040260200160405190810160405280929190818152602001828054610667906113a4565b80156106b45780601f10610689576101008083540402835291602001916106b4565b820191906000526020600020905b81548152906001019060200180831161069757829003601f168201915b5050505050905090565b6000600254905090565b6000806000806106d661085f565b73ffffffffffffffffffffffffffffffffffffffff1673ffffffffffffffffffffffffffffffffffffffff16815260200190815260200160002060008573ffffffffffffffffffffffffffffffffffffffff1673ffffffffffffffffffffffffffffffffffffffff16815260200190815260200160002054905082811015610793576040517f08c379a000000000000000000000000000000000000000000000000000000000815260040161078a90611220565b60405180910390fd5b6107b061079e61085f565b8585846107ab91906112e8565b610867565b600191505092915050565b60006107cf6107c861085f565b8484610a31565b6001905092915050565b60008060008473ffffffffffffffffffffffffffffffffffffffff1673ffffffffffffffffffffffffffffffffffffffff16815260200190815260200160002060008373ffffffffffffffffffffffffffffffffffffffff1673ffffffffffffffffffffffffffffffffffffffff16815260200190815260200160002054905092915050565b600033905090565b600073ffffffffffffffffffffffffffffffffffffffff168373ffffffffffffffffffffffffffffffffffffffff1614156108d7576040517f08c379a00000000000000000000000000000000000000000000000000000000081526004016108ce90611200565b60405180910390fd5b600073ffffffffffffffffffffffffffffffffffffffff168273ffffffffffffffffffffffffffffffffffffffff161415610947576040517f08c379a000000000000000000000000000000000000000000000000000000000815260040161093e906111a0565b60405180910390fd5b806000808573ffffffffffffffffffffffffffffffffffffffff1673ffffffffffffffffffffffffffffffffffffffff16815260200190815260200160002060008473ffffffffffffffffffffffffffffffffffffffff1673ffffffffffffffffffffffffffffffffffffffff168152602001908152602001600020819055508173ffffffffffffffffffffffffffffffffffffffff168373ffffffffffffffffffffffffffffffffffffffff167f8c5be1e5ebec7d5bd14f71427d1e84f3dd0314c0f7b2291e5b200ac8c7c3b92583604051610a249190611240565b60405180910390a3505050565b600073ffffffffffffffffffffffffffffffffffffffff168373ffffffffffffffffffffffffffffffffffffffff161415610aa1576040517f08c379a0000000000000000000000000000000000000000000000000000000008152600401610a98906111e0565b60405180910390fd5b600073ffffffffffffffffffffffffffffffffffffffff168273ffffffffffffffffffffffffffffffffffffffff161415610b11576040517f08c379a0000000000000000000000000000000000000000000000000000000008152600401610b0890611180565b60405180910390fd5b610b23610b1c61085f565b8383610cf4565b610b2b610d3d565b60025481600060048110610b68577f4e487b7100000000000000000000000000000000000000000000000000000000600052603260045260246000fd5b6020020181815250508373ffffffffffffffffffffffffffffffffffffffff1681600160048110610bc2577f4e487b7100000000000000000000000000000000000000000000000000000000600052603260045260246000fd5b6020020181815250508273ffffffffffffffffffffffffffffffffffffffff1681600260048110610c1c577f4e487b7100000000000000000000000000000000000000000000000000000000600052603260045260246000fd5b6020020181815250508181600360048110610c60577f4e487b7100000000000000000000000000000000000000000000000000000000600052603260045260246000fd5b602002018181525050610c71610d1b565b602081608084600060f1600019f1610c8857600080fd5b8373ffffffffffffffffffffffffffffffffffffffff168573ffffffffffffffffffffffffffffffffffffffff167fddf252ad1be2c89b69c2b068fc378daa952ba7f163c4a11628f55a4df523b3ef85604051610ce59190611240565b60405180910390a35050505050565b505050565b6040518060400160405280600290602082028036833780820191505090505090565b6040518060200160405280600190602082028036833780820191505090505090565b6040518060800160405280600490602082028036833780820191505090505090565b600081359050610d6e81611445565b92915050565b600081359050610d838161145c565b92915050565b600060208284031215610d9b57600080fd5b6000610da984828501610d5f565b91505092915050565b60008060408385031215610dc557600080fd5b6000610dd385828601610d5f565b9250506020610de485828601610d5f565b9150509250929050565b600080600060608486031215610e0357600080fd5b6000610e1186828701610d5f565b9350506020610e2286828701610d5f565b9250506040610e3386828701610d74565b9150509250925092565b60008060408385031215610e5057600080fd5b6000610e5e85828601610d5f565b9250506020610e6f85828601610d74565b9150509250929050565b610e828161132e565b82525050565b6000610e9382611276565b610e9d8185611281565b9350610ead818560208601611371565b610eb681611434565b840191505092915050565b6000610ece602383611281565b91507f45524332303a207472616e7366657220746f20746865207a65726f206164647260008301527f65737300000000000000000000000000000000000000000000000000000000006020830152604082019050919050565b6000610f34602283611281565b91507f45524332303a20617070726f766520746f20746865207a65726f20616464726560008301527f73730000000000000000000000000000000000000000000000000000000000006020830152604082019050919050565b6000610f9a602883611281565b91507f45524332303a207472616e7366657220616d6f756e742065786365656473206160008301527f6c6c6f77616e63650000000000000000000000000000000000000000000000006020830152604082019050919050565b6000611000602583611281565b91507f45524332303a207472616e736665722066726f6d20746865207a65726f20616460008301527f64726573730000000000000000000000000000000000000000000000000000006020830152604082019050919050565b6000611066602483611281565b91507f45524332303a20617070726f76652066726f6d20746865207a65726f2061646460008301527f72657373000000000000000000000000000000000000000000000000000000006020830152604082019050919050565b60006110cc602583611281565b91507f45524332303a2064656372656173656420616c6c6f77616e63652062656c6f7760008301527f207a65726f0000000000000000000000000000000000000000000000000000006020830152604082019050919050565b61112e8161135a565b82525050565b61113d81611364565b82525050565b60006020820190506111586000830184610e79565b92915050565b600060208201905081810360008301526111788184610e88565b905092915050565b6000602082019050818103600083015261119981610ec1565b9050919050565b600060208201905081810360008301526111b981610f27565b9050919050565b600060208201905081810360008301526111d981610f8d565b9050919050565b600060208201905081810360008301526111f981610ff3565b9050919050565b6000602082019050818103600083015261121981611059565b9050919050565b60006020820190508181036000830152611239816110bf565b9050919050565b60006020820190506112556000830184611125565b92915050565b60006020820190506112706000830184611134565b92915050565b600081519050919050565b600082825260208201905092915050565b600061129d8261135a565b91506112a88361135a565b9250827fffffffffffffffffffffffffffffffffffffffffffffffffffffffffffffffff038211156112dd576112dc6113d6565b5b828201905092915050565b60006112f38261135a565b91506112fe8361135a565b925082821015611311576113106113d6565b5b828203905092915050565b60006113278261133a565b9050919050565b60008115159050919050565b600073ffffffffffffffffffffffffffffffffffffffff82169050919050565b6000819050919050565b600060ff82169050919050565b60005b8381101561138f578082015181840152602081019050611374565b8381111561139e576000848401525b50505050565b600060028204905060018216806113bc57607f821691505b602082108114156113d0576113cf611405565b5b50919050565b7f4e487b7100000000000000000000000000000000000000000000000000000000600052601160045260246000fd5b7f4e487b7100000000000000000000000000000000000000000000000000000000600052602260045260246000fd5b6000601f19601f8301169050919050565b61144e8161131c565b811461145957600080fd5b50565b6114658161135a565b811461147057600080fd5b5056fea2646970667358221220c0d7f59aa457a5f1e2934ce78c5fb7452412a57a8b9c0d05cd16acabf2ea06d664736f6c63430008000033",
  "linkReferences": {},
  "deployedLinkReferences": {}
}